:100000000C9446000C9465000C9465000C946500FB
:100010000C946D000C9465000C9465000C946500C4
:100020000C9465000C9465000C9465000C946500BC
:100030000C9465000C9465000C9465000C946500AC
:100040000C9465000C9465000C94DB000C94650026
:100050000C9465000C9465000C9465000C9465008C
:100060000C9465000C94A9000C9465000C94650038
:100070000C9465000C9465000C9465000C9465006C
:100080000C9465000C9465000C94650011241FBE4F
:10009000CFEFD0E1DEBFCDBF21E0A4E1B1E001C0F0
:1000A0001D92A638B207E1F711E0A0E0B1E0E6E169
:1000B000F9E000E00BBF02C007900D92A431B10738
:1000C000D9F70E940C010C9489040C9400005D9BEC
:1000D000FECF8CB990E080E008951F920F920FB68A
:1000E0000F9211242F933F938F939F93839B19C05B
:1000F0008CB59DB590937F0180937E0180916A00BD
:100100008F7B80936A0080916A00806880936A0088
:100110009F918F913F912F910F900FBE0F901F9045
:1001200018958CB59DB590937D0180937C0180914D
:100130007C0190917D0120917E0130917F01821B95
:10014000930B90937B0180937A0180916A00806C7D
:10015000DDCF1F920F920FB60F9211248F939F93B2
:10016000809100018823B1F08091800090918100FE
:1001700090937F0180937E0180918A008F7B809392
:100180008A00109200019F918F910F900FBE0F90E7
:100190001F901895809180009091810090937D012F
:1001A00080937C0180918A00806480938A0081E042
:1001B00080930001E8CF1F920F920FB60F92112487
:1001C0000BB60F928F939F93EF93FF938CB1E091B7
:1001D00079018A3011F08D30A1F4F0E0EB5EFE4F32
:1001E00010821092790181E080931401FF91EF91C8
:1001F0009F918F910F900BBE0F900FBE0F901F908D
:100200001895E33698F791E09E0F90937901F0E00E
:10021000EB5EFE4F8083EACFCF93DF93CDB7DEB79F
:100220002E970FB6F894DEBF0FBECDBF8FEF8ABBFF
:10023000109290008FEC89B9599A549A539A579A10
:100240007894FE0131968EE0DF011D928A95E9F7E0
:1002500082E08C8387E690E09A878987F093830118
:10026000E09382018E9A179880918A00836480932C
:100270008A0080917D00806280937D0090EDC92E80
:1002800097E0D92EE12CF12C01E011E01DBC1CBC43
:100290009698B5E0BA95F1F70000969A25E32A956D
:1002A000F1F7000096988FEF90E7A2E08150904020
:1002B000A040E1F700C00000A0917C01B0917D0159
:1002C00080917E0190917F01A81BB90BAA0FBB1FE3
:1002D000AA0FBB1F22E230E00E94B801A7019601DD
:1002E0000E9496013F932F931F930F930E94CE017C
:1002F000BFEF29E688E1B15020408040E1F700C01F
:100300000000809114010F900F900F900F9081309A
:1003100009F0BCCF10921401E5E1F1E0819188234E
:1003200009F4B4CF5D9BFECF8CB9F8CFA1E21A2EB1
:10033000AA1BBB1BFD010DC0AA1FBB1FEE1FFF1F89
:10034000A217B307E407F50720F0A21BB30BE40BD9
:10035000F50B661F771F881F991F1A9469F7609520
:100360007095809590959B01AC01BD01CF010895DA
:100370000E94BF01B7FF0895821B930B0895A29FAF
:10038000B001B39FC001A39F700D811D1124911D69
:10039000B29F700D811D1124911D0895CF93DF939D
:1003A000CDB7DEB7AE014B5F5F4FFA01619171913E
:1003B000AF0180918201909183010E94E201DF915F
:1003C000CF9108952F923F924F925F926F927F92BA
:1003D0008F929F92AF92BF92CF92DF92EF92FF9255
:1003E0000F931F93CF93DF93CDB7DEB72B970FB645
:1003F000F894DEBF0FBECDBF7C013B018A01FC013A
:1004000017821682838181FFDDC1CE0101965C01D6
:10041000F7019381F30193FD859193FF81913F0152
:10042000882309F453C1853239F493FD859193FFF4
:1004300081913F01853229F4B70190E00E94FB03CE
:10044000E7CF912C212C312CFFE1F31538F08B32C2
:1004500011F190F4803209F1833229F137FC3CC06C
:1004600020ED280F2A3050F536FE20C08AE0989EF5
:10047000200D1124922E06C08D3291F0803371F739
:10048000689430F8F30193FD859193FF81913F01CA
:100490008111DACF21C0689431F8689432F8F2CF34
:1004A000689433F8EFCF689434F8ECCFEAE02E9EEE
:1004B000200D1124222E689435F8E4CF8E3229F4D1
:1004C00036FC04C1689436F8DDCF8C3619F4689494
:1004D00037F8D8CF8836B1F2982F9F7D9554933056
:1004E000E0F08336A1F18337C1F1833509F063C0B1
:1004F0002801F2E04F0E511CF801C080D180692D17
:1005000070E036FC02C06FEF7FEFC6010E94E5038A
:100510004C01689437F882010AC00C5F1F4FFFE35B
:10052000F98388248394912C6501E89437F833FE8D
:100530002DC0522C8114910471F5552009F468CF17
:10054000B70180E290E00E94FB035A94F6CFF801D5
:10055000808189830E5F1F4FE4CF2801F2E04F0EA8
:10056000511CF801C080D180692D70E036FC02C0BA
:100570006FEF7FEFC6010E94F0034C018201D5CFDF
:10058000B70180E290E00E94FB032A94281419042A
:1005900009F0B0F7CECFF60137FC859137FE819197
:1005A0006F01B70190E00E94FB0351105A94F1E0F3
:1005B0008F1A9108BFCF843619F0893609F077C0B9
:1005C000F80137FE6BC060817181828193810C5F7D
:1005D0001F4FF32DFF763F2E97FF09C09095809512
:1005E000709561957F4F8F4F9F4F689437F82AE041
:1005F00030E0A5010E942B04C82ECA188C2C432C75
:1006000036FE0CC0E89440F8C91440F434FE05C02E
:1006100032FC03C0F32DFE7E4F2E892C44FEAAC06F
:10062000FE01EC0DF11D8081803309F09CC0242D6A
:10063000297E422E842D8870582E43FCAAC040FE8D
:10064000A4C09C2C821418F42C0C922C981844FEF4
:10065000A6C0B70180E390E00E94FB0342FE09C000
:1006600088E790E041FE02C088E590E0B7010E9473
:10067000FB03C91408F49FC0CA94D12C9FEFC91A78
:10068000D90ACA0CDB1CF60182916F01B70190E018
:100690000E94FB03AC14BD04B1F74FCF60817181A0
:1006A000072E000C880B990B0E5F1F4F92CFD32C97
:1006B000E894D4F82AE030E08537E1F1232D297F52
:1006C000D22E8F36A9F1F0F4883551F1F7018681E9
:1006D00097812B960FB6F894DEBF0FBECDBFDF918A
:1006E000CF911F910F91FF90EF90DF90CF90BF902F
:1006F000AF909F908F907F906F905F904F903F90C2
:100700002F900895803749F0883701F7D4FE02C052
:100710006894D2F820E130E00DC06894D4F8F6CFA8
:1007200034FE03C0822F8660D82E20E132E002C062
:1007300028E030E0F801D7FE0FC06081718182812E
:1007400093810C5F1F4FA5010E942B04C82ECA186D
:100750003D2CE89437F852CF6081718190E080E0C1
:100760000E5F1F4FF0CF42FC02C0839463CF83948F
:10077000839460CF842D867809F45CCFF6CFB701DF
:1007800080E290E00E94FB0383948214C0F3512C1A
:100790005ECF522C5818821408F459CFF8CF842D0C
:1007A000867809F466CF8BE241FE80E247FC8DE259
:1007B000B70190E05CCFB70180E390E00E94FB03BB
:1007C0009A9457CF8FEF9FEF84CFFC010590615033
:1007D00070400110D8F7809590958E0F9F1F089557
:1007E000FC016150704001900110D8F78095909500
:1007F0008E0F9F1F08950F931F93CF93DF93182F92
:10080000092FEB018B8181FD09C01FEF0FEF812FB5
:10081000902FDF91CF911F910F91089582FF14C007
:100820002E813F818C819D81281739073CF4E88116
:10083000F981CF0101969983888310838E819F81EE
:1008400001969F838E83E3CFE885F985812F0995F3
:10085000892BA1F3DACFFA01AA27283051F12031F0
:1008600081F1E8946F936E7F6E5F7F4F8F4F9F4F44
:10087000AF4FB1E03ED0B4E03CD0670F781F891F86
:100880009A1FA11D680F791F8A1F911DA11D6A0F54
:10089000711D811D911DA11D20D009F468943F9107
:1008A0002AE0269F11243019305D3193DEF6CF0106
:1008B0000895462F4770405D4193B3E00FD0C9F7CC
:1008C000F6CF462F4F70405D4A3318F0495D31FD39
:1008D0004052419302D0A9F7EACFB4E0A69597958C
:1008E000879577956795BA95C9F700976105710562
:1008F00008959B01AC010A2E0694579547953795AC
:100900002795BA95C9F7620F731F841F951FA01D05
:060910000895F894FFCFEA
:100916000164697374616E6365203A2025642063FF
:040926006D0D0A0049
:00000001FF
